:020000040000FA
:04000000D1EF00F04C
:08000800056ED8CF06F0E0CF31
:1000100007F00001E9CF0DF0EACF08F0E1CF09F0D9
:10002000E2CF0AF0D9CF0BF0DACF0CF0F3CF14F017
:10003000F4CF15F0FACF16F000C00FF001C010F0A9
:1000400002C011F003C012F004C013F09DAA2CEFFF
:1000500000F09EBA4FEF00F00FC000F010C001F0AA
:1000600011C002F012C003F013C004F00E8E0DC0D8
:10007000E9FF08C0EAFF09C0E1FF0AC0E2FF0BC0C8
:10008000D9FF0CC0DAFF14C0F3FF15C0F4FF16C08F
:10009000FAFF055007C0E0FF06C0D8FF10009EAA77
:1000A000FED7AECF18F09E9A2CEF00F0EA6A330E1E
:1000B000E96EEF500DE0060E016E006A002EFED7CD
:1000C000012EFBD77B0E006E002EFED7EF2EF3D74E
:1000D000000C016A026A006A036A365002E1355078
:1000E00018E0100E376ED8903336343600360336AB
:1000F0003650035C02E13550005C07E33550005E8A
:10010000D8A003063650035ED88001360236372E5B
:10011000EAD7000C1B6A1A6A32503E0802E23F0E10
:10012000326E196A3250195C16E2000E016EC2502E
:10013000C70B0110C26E640E336EB8DFC284C2B446
:10014000FED7C3CF1EF0C4CF1FF01E501A261F507B
:100150001B22192AE7D71BC034F01AC033F0366AC5
:1001600032C035F0B6DF02C01BF001C01AF01AC071
:1001700001F01BC002F042EF01F03350016A325C23
:1001800003E232C000F00CD0006A080E346E323642
:1001900000363350005CD8B0006E0136342EF7D7ED
:1001A000000CF86AD09E0D8EEA6AE96A810EAF6E85
:1001B000A60EAC6E900EAB6EC180C182C184C1969A
:1001C000186A196A1A6A1B6A1C6A1D6A1E6A1F6A03
:1001D000206A216A226A236A276A300E286E310E4D
:1001E000296E320E2A6E330E2B6E340E2C6E350EA7
:1001F0002D6E360E2E6E370E2F6E380E306E390E77
:10020000316EC190C192C184C196C19CC28CC28E14
:10021000C18EC2809698C69A949A94889496010E3C
:10022000C66E000EC76ED190800ED56ECD6A000EE0
:10023000CA6E000ECB6EB150480BB16E9D8AC00ED7
:10024000F2120F0E926E800E946E000E956EFF0EDF
:10025000836E060E326EFA0E336E28DF322EFBD717
:10026000836A040E326EC80E336E20DF322EFBD747
:10027000040E326EFA0E336E19DF322EFBD7140ED7
:10028000326E48D7080E016EC250C70B0110C26E05
:10029000010E336E0BDFC284C2B4FED7C3CF1CF095
:1002A000C4CF1DF01DC034F01CC033F0366A050EFB
:1002B000356E0FDF02C01DF001C01CF01BC023F023
:1002C0001AC022F01C501A261D501B22020E216E4D
:1002D000260E206E21501B5C0CE303E120501A5CBB
:1002E00008E3836A280E326EFA0E336EDFDE322E9A
:1002F000FBD71B50215C15E303E120501A5C11E28F
:100300001B5000080EE2FF0A03E11A50C20809E27E
:10031000FF0E836E780E326EFA0E336EC7DE322E0B
:10032000FBD71B5001080BE303E11A50C20807E397
:100330001B5203E11A50050802E2FF0E836E23529E
:1003400004E12250040801E3836A1BC034F01AC0A0
:1003500033F0366A640E356EBCDE01C026F01BC079
:1003600034F01AC033F0366A640E356EB2DE00C067
:1003700027F027C032F00A0E336EFFDE01C025F0F1
:1003800027C032F00A0E336EF8DE00C024F0610E92
:100390009EA8FED7AD6E640E9EA8FED7AD6E630E0E
:1003A0009EA8FED7AD6E3D0E9EA8FED7AD6E036A29
:1003B0002650280FE96E000E0320EA6EEFCF32F0D0
:1003C00032509EA8FED7AD6E036A2550280FE96E05
:1003D000000E0320EA6EEFCF32F032509EA8FED717
:1003E000AD6E036A2450280FE96E000E0320EA6EFA
:1003F000EFCF32F032509EA8FED7AD6E0D0E9EA804
:08040000FED7AD6E35D70300F5
:020000040030CA
:0E00000000220F0E000181000FC00FE00F4024
:00000001FF
;PIC18F452
