:020000040000FA
:1000000015EF00F0EA6A070EE96EEF500DE0060EFC
:10001000016E006A002EFED7012EFBD77B0E006E0C
:10002000002EFED7EF2EF3D7000CF86AD09EEA6AB6
:10003000E96A810EAF6EA60EAC6E900EAB6EC180FB
:10004000C182C184C196C180C182C184C196C2905F
:100050009698C69A949A94889496010EC66E000E4D
:10006000C76ED190800ED56ECD6A000ECA6E000E9E
:10007000CB6E956E936EFF0E836E816E3C0E066E98
:10008000FA0E076EBFDF062EFBD7816AFF0E836E66
:10009000010E076EB7DFFF0E816E836AEFD7030094
:020000040030CA
:0E00000000220F0E000181000FC00FE00F4024
:00000001FF
;PIC18F452
