:020000040000FA
:04000000D1EF00F04C
:08000800056ED8CF06F0E0CF31
:1000100007F00001E9CF0DF0EACF08F0E1CF09F0D9
:10002000E2CF0AF0D9CF0BF0DACF0CF0F3CF14F017
:10003000F4CF15F0FACF16F000C00FF001C010F0A9
:1000400002C011F003C012F004C013F09DAA2CEFFF
:1000500000F09EBA4FEF00F00FC000F010C001F0AA
:1000600011C002F012C003F013C004F00E8E0DC0D8
:10007000E9FF08C0EAFF09C0E1FF0AC0E2FF0BC0C8
:10008000D9FF0CC0DAFF14C0F3FF15C0F4FF16C08F
:10009000FAFF055007C0E0FF06C0D8FF10009EAA77
:1000A000FED7AECF20F09E9A2CEF00F0EA6A300E19
:1000B000E96EEF500DE0060E016E006A002EFED7CD
:1000C000012EFBD77B0E006E002EFED7EF2EF3D74E
:1000D000000C016A026A006A036A335002E132507E
:1000E00018E0100E346ED8903036313600360336B4
:1000F0003350035C02E13250005C07E33250005E93
:10010000D8A003063350035ED88001360236342E61
:10011000EAD7000C196A186A2F503E0802E23F0E17
:100120002F6E1E6A2F501E5C16E2000E016EC2502A
:10013000C70B0110C26E640E306EB8DFC284C2B449
:10014000FED7C3CF1AF0C4CF1BF01A5018261B508D
:1001500019221E2AE7D719C031F018C030F0336ACF
:100160002FC032F0B6DF02C019F001C018F018C07D
:1001700001F019C002F040EF01F03050016A2F5C2D
:1001800003E22FC000F00CD0006A080E316E2F364B
:1001900000363050005CD8B0006E0136312EF7D7F3
:1001A000000CF86AD09E0D8EEA6AE96A810EAF6E85
:1001B000A60EAC6E900EAB6EC180C182C184C1969A
:1001C000186A196A1A6A1B6A1C6A1D6A1E6A1F6A03
:1001D000246A300E256E310E266E320E276E330ED7
:1001E000286E340E296E350E2A6E360E2B6E370EA3
:1001F0002C6E380E2D6E390E2E6EC190C182C184C8
:10020000C186C19CC28CC28EC18EC2809698C69A8D
:10021000949A94889496010EC66E000EC76ED19083
:10022000800ED56ECD6A000ECA6E000ECB6EB15038
:10023000480BB16E9D8AC00EF212926A896A800ED6
:10024000946E010E926E000E956E956A8C6A816AAC
:10025000FF0E836E040E2F6EFA0E306E27DF2F2EE8
:10026000FBD7836A020E2F6EFA0E306E1FDF2F2E21
:10027000FBD7140E1F6E196A186A1FC02FF04AD7D9
:1002800002C019F001C018F01950020806E2FF0A76
:1002900003E118505B0801E2836A195003080DE37B
:1002A00003E118505B0809E31950010806E2FF0A50
:1002B00003E11850580801E2836A1950020820E34C
:1002C00003E118503A081CE3195203E118500508DD
:1002D00017E2FF0E836E280E2F6EFA0E306EE6DEEA
:1002E0002F2EFBD7780E2F6EFA0E306EDFDE2F2EFC
:1002F000FBD7780E2F6EFA0E306ED8DE2F2EFBD77E
:10030000195204E118500508D8B0836A19C01DF0CD
:1003100018C01CF01D50020809E2FF0A03E11C503E
:10032000E70804E2030E1D6EE70E1C6E1DC031F0DF
:100330001CC030F0336A640E326ECBDE01C023F095
:100340001DC031F01CC030F0336A640E326EC1DE65
:1003500000C024F024C02FF00A0E306E0EDF01C062
:1003600022F024C02FF00A0E306E07DF00C021F00B
:10037000610E9EA8FED7AD6E640E9EA8FED7AD6E30
:10038000630E9EA8FED7AD6E3D0E9EA8FED7AD6E45
:10039000036A2350250FE96E000E0320EA6EEFCFAB
:1003A0002FF02F509EA8FED7AD6E036A2250250F66
:1003B000E96E000E0320EA6EEFCF2FF02F509EA8BB
:1003C000FED7AD6E036A2150250FE96E000E0320A3
:1003D000EA6EEFCF2FF02F509EA8FED7AD6E0D0E18
:1003E0009EA8FED7AD6E816AC80E306E5FDE036ACE
:1003F0002350250FE96E000E0320EA6EEFCF81FF38
:10040000C80E306E53DE036A2250250FE96E000ECF
:100410000320EA6EEFCF81FFC80E306E47DE036A1D
:100420002150250FE96E000E0320EA6EEFCF81FF09
:0A043000C80E306E3BDE1FD703003C
:020000040030CA
:0E00000000220F0E000181000FC00FE00F4024
:00000001FF
;PIC18F452
