:020000040000FA
:040000000EEF01F00E
:08000800056ED8CF06F0E0CF31
:1000100007F00001E9CF0DF0EACF08F0E1CF09F0D9
:10002000E2CF0AF0D9CF0BF0DACF0CF0F3CF14F017
:10003000F4CF15F0FACF16F000C00FF001C010F0A9
:1000400002C011F003C012F004C013F09DAA2CEFFF
:1000500000F09EBA4FEF00F00FC000F010C001F0AA
:1000600011C002F012C003F013C004F00E8E0DC0D8
:10007000E9FF08C0EAFF09C0E1FF0AC0E2FF0BC0C8
:10008000D9FF0CC0DAFF14C0F3FF15C0F4FF16C08F
:10009000FAFF055007C0E0FF06C0D8FF10009EAA77
:1000A000FED7AECF22F09E9A2CEF00F0EA6A330E14
:1000B000E96EEF500EE00C0E016E006A002EFED7C6
:1000C000012EFBD7F70E006E002EFED700D0EF2ECC
:1000D000F2D7000C016A026A006A036A365002E134
:1000E000355018E0100E376ED8903336343600365F
:1000F00003363650035C02E13550005C07E33550AF
:10010000005ED8A003063650035ED8800136023662
:10011000372EEAD7000C3450016A335C03E233C057
:1001200000F00CD0006A080E356E333600363450BD
:10013000005CD8B0006E0136352EF7D7000C32C007
:1001400034F031C033F0366A0A0E356EC3DF00C0BA
:1001500023F032C034F031C033F0366A0A0E356E07
:10016000B9DF01C024F024C033F00A0E346ED3DFAF
:1001700000C024F032C034F031C033F0366A640E6F
:10018000356EA8DF01C025F025C033F00A0E346EAD
:10019000C2DF01C026F025C033F00A0E346EBBDF8B
:1001A00000C025F0036A2650270FE96E000E0320D9
:1001B000EA6EEFCF33F033509EA8FED7AD6E036AE0
:1001C0002550270FE96E000E0320EA6EEFCF33F0C3
:1001D00033509EA8FED7AD6E036A2450270FE96EF8
:1001E000000E0320EA6EEFCF33F033509EA8FED707
:1001F000AD6E036A2350270FE96E000E0320EA6EEE
:10020000EFCF33F033509EA8FED7AD6E200E9EA8E0
:10021000FED7AD6E080E336E49DF000CF86AD09E33
:100220000D8EEA6AE96A400EAF6EA20EAC6E900EB9
:10023000AB6EC180C182C184C196186A196A1A6AFC
:100240001B6A1C6A1D6A1E6A1F6A206A216A226A6A
:10025000236A246A256A266A300E276E310E286EBC
:10026000320E296E330E2A6E340E2B6E350E2C6E26
:10027000360E2D6E370E2E6E380E2F6E390E306EF6
:10028000C190C192C194C196C19CC29CC29EC18EB4
:10029000C2809698C69A949A94889496010EC66ED7
:1002A000000EC76ED190800ED56ECD6A000ECA6E5C
:1002B000000ECB6E9D8AC00EF212800E946EFF0E61
:1002C000926E968096829684000E956E020E836ED4
:1002D000926A896A9690969296948D6A000E016E43
:1002E000C250C70B0110C26E010E336EDFDEC28436
:1002F000C2B4FED7C3CF18F0C4CF19F0080E016EF8
:10030000C250C70B0110C26E010E336ECFDEC28425
:10031000C2B4FED7C3CF1AF0C4CF1BF0280E016EB3
:10032000C250C70B0110C26E010E336EBFDEC28415
:10033000C2B4FED7C3CF1CF0C4CF1DF0300E016E87
:10034000C250C70B0110C26E010E336EAFDEC28405
:10035000C2B4FED7C3CF1EF0C4CF1FF0380E016E5B
:10036000C250C70B0110C26E010E336E9FDEC284F5
:10037000C2B4FED7C3CF20F0C4CF21F019C032F0F1
:1003800018C031F0DCDE1BC032F01AC031F0D7DE0D
:100390001DC032F01CC031F0D2DE1FC032F01EC0D2
:1003A00031F0CDDE21C032F020C031F0C8DE0D0EBC
:1003B0009EA8FED7AD6E140E336E78DE8FD7030085
:020000040030CA
:0E00000000220F0E000181000FC00FE00F4024
:00000001FF
;PIC18F452
