:020000040000FA
:0400000052EF00F0CB
:08000800056ED8CF06F0E0CF31
:1000100007F00001E9CF0DF0EACF08F0E1CF09F0D9
:10002000E2CF0AF0D9CF0BF0DACF0CF0F3CF14F017
:10003000F4CF15F0FACF16F000C00FF001C010F0A9
:1000400002C011F003C012F004C013F0F2A82CEFAC
:1000500000F0F2B24FEF00F00FC000F010C001F05E
:1000600011C002F012C003F013C004F00E8E0DC0D8
:10007000E9FF08C0EAFF09C0E1FF0AC0E2FF0BC0C8
:10008000D9FF0CC0DAFF14C0F3FF15C0F4FF16C08F
:10009000FAFF055007C0E0FF06C0D8FF1000F2923B
:1000A0002CEF00F0F86AD09E0D8EEA6AE96A810EA4
:1000B000AF6EA60EAC6E900EAB6EC180C182C184D5
:1000C000C196C190C182C184C186C19CC29CC29E9E
:1000D000C19EC2809698C69A949A94889496010E6E
:1000E000C66E000EC76ED190800ED56ECD6A000E22
:1000F000CA6E000ECB6EB150480BB16EF288C00EC6
:04010000F2120300F4
:020000040030CA
:0E00000000220F0E000181000FC00FE00F4024
:00000001FF
;PIC18F452
