:020000040000FA
:100000007CEF02F0EDEF02F0056ED8CF06F0E0CF06
:1000100007F00001E9CF0DF0EACF08F0E1CF09F0D9
:10002000E2CF0AF0D9CF0BF0DACF0CF0F3CF14F017
:10003000F4CF15F0FACF16F000C00FF001C010F0A9
:1000400002C011F003C012F004C013F0F2A82CEFAC
:1000500000F0F2B24FEF00F00FC000F010C001F05E
:1000600011C002F012C003F013C004F00E8E0DC0D8
:10007000E9FF08C0EAFF09C0E1FF0AC0E2FF0BC0C8
:10008000D9FF0CC0DAFF14C0F3FF15C0F4FF16C08F
:10009000FAFF055007C0E0FF06C0D8FF100023920A
:1000A00084B4238223A213D0040E845CFC0F0FE2DD
:1000B000040F6AEF00F0040E1B6E09D0050E1B6ED4
:1000C00006D0060E1B6E03D0070E1B6E00D0F292F8
:1000D0002CEF00F0E824F76AF736EF0FF66E000E0B
:1000E000F7220A00F550FA6E0800F550F96EB600D6
:1000F000BC00C200C800080E016E00008B969496EA
:10010000000028368B98D8B09488D8A0949894860C
:1001100082A6FED7012EF1D700008B9694960000A0
:10012000948800000000948682A6FED7016A000031
:1001300082B801808B9694968B989498000C948842
:100140000000948600008B98949800008B969496FB
:10015000D00E286ED0DF286ACEDF500E286ECBDF9F
:10016000590E286EC8DF230E286EC5DF040E286ED8
:10017000C2DF310E286EBFDF120E286EBCDF200EEC
:10018000286EB9DF94980000948682A6FED70000FE
:1001900000D0000094880000CBEF02F0EA6A250E40
:1001A000E96EEF500DE0060E016E006A002EFED7DC
:1001B000012EFBD77B0E006E002EFED7EF2EF3D75D
:1001C000000C080E256E00C026F09488000094866E
:1001D00082A6FED782B8D88082A8D89001360000C7
:1001E00094968B96252EF1D7948800008B982650F4
:1001F000D8A494980000948682A6FED700008B961F
:10020000949600008B989498000C94880000948633
:1002100000008B98949800008B969496D00E286ED0
:100220006ADF286A68DF94980000948682A6FED769
:10023000000000D00000948800009488000094869C
:1002400000008B98949800008B969496D10E286E9F
:1002500052DF010E006EB5DF01C01CF0010E006E12
:10026000B0DF01C01DF0010E006EABDF01C01EF05B
:10027000010E006EA6DF01C01FF0010E006EA1DFAF
:1002800001C020F0010E006E9CDF01C021F0006A69
:1002900098DF01C022F094980000948682A6FED7D1
:1002A000000000D0000094880000000C23A42ED091
:1002B0002394780E246EFA0E256E70DF242EFBD761
:1002C000A4DF94880000948600008B989498000026
:1002D0008B969496D00E286E0EDF286A0CDF150ED2
:1002E0001C5E1C5206E11C505F0803E21C6A030EF0
:1002F000836E1CC028F0FFDE94980000948682A6CE
:10030000FED7000000D0000094880000E2EF02F069
:10031000030E245E09E3EA6A240EE96EEF5004E05E
:1003200001D000D0EF2EFDD7C6EF01F02850016AB2
:10033000275C03E227C000F00CD0006A080E296E8B
:10034000273600362850005CD8B0006E0136292EC2
:10035000F7D7000C24C027F00A0E286EE7DF01381B
:10036000266EF00E261624C027F00A0E286EDEDF59
:1003700000502610016ED7EF01F0000E016EC25042
:10038000C70B0110C26EFA0E246EC2D7C284C2B46B
:10039000FED7C4CF19F01950020802E2030E195E0D
:1003A000193219323F0E191619C024F0D3D701C0E3
:1003B00019F019C001F0000CE0DF01C018F018C0FE
:1003C00021F02150120802E2120E216E94880000E2
:1003D000948600008B98949800008B969496D00E8B
:1003E000286E89DE050E286E86DE21C028F083DEA9
:1003F00094980000948682A6FED7000000D00000EA
:1004000094880000F1EF02F0B8DF01C018F018C0C6
:1004100020F02050310802E2310E206E9488000056
:10042000948600008B98949800008B969496D00E3A
:10043000286E61DE040E286E5EDE20C028F05BDED2
:1004400094980000948682A6FED7000000D0000099
:1004500094880000F6EF02F090DF01C018F018C099
:100460001EF01E50230802E2230E1E6E9488000028
:10047000948600008B98949800008B969496D00EEA
:10048000286E39DE020E286E36DE1EC028F033DEFE
:1004900094980000948682A6FED7000000D0000049
:1004A00094880000FBEF02F068DF01C018F018C06C
:1004B0001DF01D505F0802E2590E1D6E9488000069
:1004C000948600008B98949800008B969496D00E9A
:1004D000286E11DE010E286E0EDE1DC028F00BDE28
:1004E00094980000948682A6FED7000000D00000F9
:1004F0009488000000EF03F0F86AD09E0D8EEA6A3F
:10050000E96AC180C182C184C1960A0E196E1A6A55
:100510001B6A1C6A1D6A1E6A1F6A206A216A226A97
:1005200023802392239423962398C190C182C1846F
:10053000C186C19CC28CC28EC19EC2809698D19049
:10054000800ED56ECD6A000ECA6E000ECB6EB15015
:10055000480BB16EF288C00EF212010E926E9690A8
:1005600096929694000E956E010E936E000E946E08
:10057000946A8B6A926A896A936A8A6A956A8C6AB3
:1005800023A011D0090E246E150E256E100E266EB6
:10059000010E276ED4D52390060E246EFA0E256E1A
:1005A000FDDD242EFBD7C80E256EF8DD1E50230876
:1005B00007E11D50580804E21C505608D8A02384B7
:1005C00024DE74D6239284B4238223A206D0D5DEFF
:1005D00001C01AF01AC024F015D51B50040802E11E
:1005E000EBD61B6A1B50050802E10ED71B6A1B5095
:1005F000060802E131D71B6A1B50070802E154D7F5
:060600001B6ABED70300D7
:020000040030CA
:0E00000000220F0E000181000FC00FE00F4024
:00000001FF
;PIC18F452
