:020000040000FA
:04000000EFEF02F02C
:08000800056ED8CF06F0E0CF31
:1000100007F00001E9CF0DF0EACF08F0E1CF09F0D9
:10002000E2CF0AF0D9CF0BF0DACF0CF0F3CF14F017
:10003000F4CF15F0FACF16F000C00FF001C010F0A9
:1000400002C011F003C012F004C013F0F2A82CEFAC
:1000500000F0F2B273EF00F00FC000F010C001F03A
:1000600011C002F012C003F013C004F00E8E0DC0D8
:10007000E9FF08C0EAFF09C0E1FF0AC0E2FF0BC0C8
:10008000D9FF0CC0DAFF14C0F3FF15C0F4FF16C08F
:10009000FAFF055007C0E0FF06C0D8FF1000080EA9
:1000A000016E00008B96949600004A368B98D8B06B
:1000B0009488D8A09498948682A6FED7012EF1D772
:1000C00000008B96949600009488000000009486AF
:1000D00082A6FED7016A000082B801808B969496B2
:1000E0008B989498000C926A896A9690969296944E
:1000F0008D6A439084B4438043A014D0040E845C82
:10010000FC0F0FE2040FB3EF00F0040E316E09D0C4
:10011000050E316E06D0060E316E03D0070E316E1D
:1001200000D01ED0805020081BE1948800009486E7
:1001300000008B98949800008B969496D00E4A6E8F
:10014000AEDF4A6AACDF010E4A6EA9DF9498000068
:10015000948682A6FED7000000D00000948800009C
:10016000F2922CEF00F0E824F76AF736810FF66E72
:10017000010EF7220A00F550FA6E0800F550F96EEC
:100180000A01100116011C01EA6A450EE96EEF50E2
:100190000DE0060E016E006A002EFED7012EFBD781
:1001A0007B0E006E002EFED7EF2EF3D7000C948846
:1001B0000000948600008B98949800008B9694968B
:1001C000186AF2BE188EF29ED00E4A6E68DF18BE14
:1001D000F28E186AF2BE188EF29E060E4A6E5FDF2D
:1001E00018BEF28E186AF2BE188EF29E200E4A6E6B
:1001F00056DF18BEF28E94980000948682A6FED731
:10020000000000D000009488000062EF03F0080EA8
:10021000456E00C046F094880000948682A6FED702
:1002200082B8D88082A8D8900136000094968B9628
:10023000452EF1D7948800008B984650D8A4949806
:100240000000948682A6FED700008B96949600004C
:100250008B989498000C94880000948600008B98EA
:10026000949800008B969496186AF2BE188EF29EAF
:10027000D00E4A6E14DF18BEF28E186AF2BE188EC7
:10028000F29E4A6A0CDF18BEF28E949800009486A3
:1002900082A6FED7000000D0000094880000948859
:1002A0000000948600008B98949800008B9694969A
:1002B000186AF2BE188EF29ED10E4A6EF0DE18BE9B
:1002C000F28E010E006EA3DF01C038F0010E006E49
:1002D0009EDF01C039F0010E006E99DF01C03AF0D7
:1002E000010E006E94DF01C03BF0010E006E8FDF47
:1002F00001C03CF0010E006E8ADF01C03DF0006AD3
:1003000086DF01C03EF094980000948682A6FED756
:10031000000000D0000094880000000C43A242D0EE
:10032000500E446EFA0E456E2FDF442EFBD793DF3E
:1003300094880000948600008B98949800008B9617
:100340009496186AF2BE188EF29ED00E4A6EA7DE00
:1003500018BEF28E186AF2BE188EF29E4A6A9FDEAE
:1003600018BEF28E3A50100803E1020E385E02D039
:10037000030E385E38505F08D8A0386A186AF2BE9B
:10038000188EF29E38C04AF08ADE18BEF28E94981B
:100390000000948682A6FED7000000D0000094885A
:1003A000000043928CEF03F04850016A475C03E27F
:1003B00047C000F00CD0006A080E496E4736003680
:1003C0004850005CD8B0006E0136492EF7D7000CBB
:1003D00044C047F00A0E486EE7DF0138466EF00E63
:1003E000461644C047F00A0E486EDEDF0050461045
:1003F000016E02EF02F03F0E801680CF30F030C069
:1004000044F0E6D701C030F030C001F0000CF3DF5B
:1004100001C02FF02FC039F039505F0802E2590EA9
:10042000396E94880000948600008B9894980000A0
:100430008B969496186AF2BE188EF29ED00E4A6E73
:100440002EDE18BEF28E186AF2BE188EF29E010ED3
:100450004A6E25DE18BEF28E186AF2BE188EF29E23
:1004600039C04AF01CDE18BEF28E949800009486C3
:1004700082A6FED7000000D000009488000093EF11
:1004800003F0B9DF01C02FF02FC03AF03A50230833
:1004900002E2230E3A6E94880000948600008B9846
:1004A000949800008B969496186AF2BE188EF29E6D
:1004B000D00E4A6EF4DD18BEF28E186AF2BE188EA7
:1004C000F29E020E4A6EEBDD18BEF28E186AF2BE84
:1004D000188EF29E3AC04AF0E2DD18BEF28E949871
:1004E0000000948682A6FED7000000D00000948809
:1004F000000098EF03F07FDF01C02FF02FC03CF029
:100500003C50310802E2310E3C6E94880000948623
:1005100000008B98949800008B969496186AF2BE0F
:10052000188EF29ED00E4A6EBADD18BEF28E186A90
:10053000F2BE188EF29E040E4A6EB1DD18BEF28E27
:10054000186AF2BE188EF29E3CC04AF0A8DD18BEB2
:10055000F28E94980000948682A6FED7000000D008
:100560000000948800009DEF03F045DF01C02FF0EC
:100570002FC03DF03D50120802E2120E3D6E9488ED
:100580000000948600008B98949800008B969496B7
:10059000186AF2BE188EF29ED00E4A6E80DD18BE2A
:1005A000F28E186AF2BE188EF29E050E4A6E77DD44
:1005B00018BEF28E186AF2BE188EF29E3DC04AF046
:1005C0006EDD18BEF28E94980000948682A6FED747
:1005D000000000D0000094880000A2EF03F0F86A49
:1005E000D09E0D8EEA6AE96AC180C182C184C1963B
:1005F000196A1A6A1B6A1C6A1D6A1E6A1F6A206AC7
:10060000216A226A236A246A3F0E256E060E266E30
:100610005B0E276E4F0E286E660E296E6D0E2A6ECB
:100620007D0E2B6E070E2C6E7F0E2D6E6F0E2E6EB6
:100630000A0E306E316A336A356A376A386A396A47
:100640003A6A3B6A3C6A3D6A3E6A426A4390439218
:10065000C180C182C184C196C2909698D190800E0B
:10066000D56ECD6A000ECA6E000ECB6EB150480B2F
:10067000B16EF288C00EF212FF0E926E96809682D4
:100680009684000E956E030E936E000E946E926A21
:10069000896A936A8A6A956A8C6A96909692969409
:1006A0008D6A828E040E446EC80E456E6DDD442E3A
:1006B000FBD7829E040E446EC80E456E65DD442E47
:1006C000FBD775D5C8DD3A50150807E139505908F0
:1006D00004E138505608D8A043823A50210807E177
:1006E0003950590804E138505608D8A043823A508E
:1006F000030807E13950590804E138505608D8A0DA
:1007000043823A50090807E13950590804E138504A
:100710005608D8A0438202D6439084B44380315017
:10072000040802E174D6316A3150050802E1A9D605
:10073000316A3150060802E1DED6316A31500708CD
:1007400002E113D7316A846A38500F0B326E385089
:10075000F00B336E333A0F0E331639500F0B346EE5
:100760003950F00B356E353A0F0E35163A500F0BE7
:10077000366E3A50F00B376E373A0F0E37163D5043
:100780000F0B416E3D50F00B426E423A0F0E421677
:100790003C500F0B3F6E3C50F00B406E403A0F0E3A
:1007A0004016845246E1036A3250250FE96E000E6E
:1007B0000320EA6EEFCF83FF838E828A0A0E456E96
:1007C000E3DC829A010E456EDFDC036A3350250FAD
:1007D000E96E000E0320EA6EEFCF83FF82840A0EDB
:1007E000456ED2DC8294010E456ECEDC036A345035
:1007F000250FE96E000E0320EA6EEFCF83FF838E94
:1008000082820A0E456EC0DC8292010E456EBCDC0F
:10081000036A3550250FE96E000E0320EA6EEFCF14
:1008200083FF82800A0E456EAFDC8290010E456E1A
:10083000ABDC842C3FD0036A3450250FE96E000EE8
:100840000320EA6EEFCF83FF838E828A0A0E456E05
:100850009BDC829A036A3550250FE96E000E032057
:10086000EA6EEFCF83FF82840A0E456E8DDC8294A0
:10087000050E456E89DC036A3650250FE96E000EC1
:100880000320EA6EEFCF83FF82820A0E456E7CDC86
:100890008292036A3750250FE96E000E0320EA6E3C
:1008A000EFCF83FF82800A0E456E6EDC82900A0EC7
:1008B000456E6ADC8450030803E0845002083EE180
:1008C000036A3F50250FE96E000E0320EA6EEFCF5A
:1008D00083FF828A0A0E456E57DC829A036A405073
:1008E000250FE96E000E0320EA6EEFCF83FF8284AE
:1008F0000A0E456E49DC82940A0E456E45DC036A99
:100900004150250FE96E000E0320EA6EEFCF83FF02
:1009100082820A0E456E38DC8292036A4250250FAD
:10092000E96E000E0320EA6EEFCF83FF82800A0E8D
:10093000456E2ADC82900A0E456E26DC3AC01AF01B
:1009400039C019F03DC01CF03CC01BF03D2C01D05B
:1009500009D03D50020806E03D50120803E03D502A
:10096000110812E11A5016080EE303E1195050085D
:100970000AE31A50070807E2FF0A03E119501F08AB
:1009800002E2829E01D0828E1C50020819E2FF0A08
:1009900003E11B50000814E21C50030811E303E1BB
:1009A0001B5015080DE31A50070809E21A501808E1
:1009B00006E303E11950360802E3829E01D0828EDD
:1009C0001C5002081EE2FF0A03E11B50150819E241
:1009D0001C50030816E303E11B50310812E31A50C0
:1009E00006080EE2FF0A03E11950030809E21A5053
:1009F000180806E303E11950580802E3829E01D06B
:100A0000828E1C50030819E21C50040816E303E10F
:100A10001B50150812E31A5005080EE2FF0A03E105
:100A20001950300809E21A50190806E303E1195079
:100A3000210802E3829E01D0828E1C5003081EE230
:100A4000FF0A03E11B50150819E21C50040816E3C5
:100A500003E11B50310812E31A5005080EE2FF0AA9
:100A600003E11950010809E21A50190806E303E1ED
:100A70001950430802E3829E01D0828E1C50040864
:100A800019E21C50050816E303E11B50150812E398
:100A90001A5004080EE2FF0A03E11950340809E273
:100AA0001A50200806E303E11950040802E3829E6D
:100AB00001D0828E1C5004081EE2FF0A03E11B5085
:100AC000150819E21C50050816E303E11B50310814
:100AD00012E31A5004080EE2FF0A03E1195012084B
:100AE00009E21A50200806E303E11950240802E342
:100AF000829E01D0828E1C50050819E21C50060807
:100B000016E303E11B50150812E31A5003080EE226
:100B1000FF0A03E11950560809E21A50200806E3BB
:100B200003E11950430802E3829E01D0828E1C50DB
:100B300005081EE2FF0A03E11B50150819E21C50CC
:100B4000060816E303E11B50310812E31A500308AC
:100B50000EE2FF0A03E11950510809E21A50200879
:100B600006E303E11950530802E3829E01D0828E0E
:100B70001C50060819E21C50070816E303E11B503D
:100B8000150812E31A5004080EE2FF0A03E1195097
:100B9000040809E21A50200806E303E1195050083E
:100BA00002E3829E01D0828E1C5006081EE2FF0ADC
:100BB00003E11B50150819E21C50070816E303E176
:100BC0001B50310812E31A5004080EE2FF0A03E139
:100BD0001950260809E21A50200806E303E11950CB
:100BE000290802E3829E01D0828E1C50070819E278
:100BF0001C50080816E303E11B50150812E31A50B5
:100C000004080EE2FF0A03E11950440809E21A50F1
:100C1000200806E303E11950070802E3829E01D091
:100C2000828E1C5007081EE2FF0A03E11B501508C4
:100C300019E21C50080816E303E11B50310812E3C7
:100C40001A5005080EE2FF0A03E11950070809E2ED
:100C50001A50190806E303E11950360802E3829E90
:100C600001D0828E1C50080819E21C50090816E3B6
:100C700003E11B50150812E31A5005080EE2FF0AA3
:100C800003E11950270809E21A50190806E303E1A5
:100C90001950050802E3829E01D0828E1C5008087C
:100CA0001EE2FF0A03E11B50150819E21C50090857
:100CB00016E303E11B50310812E31A5005080EE257
:100CC000FF0A03E11950480809E21A50180806E320
:100CD00003E11950340802E3829E01D0828E1C5039
:100CE0000F0819E21C50100816E303E11B50150809
:100CF00012E31A5006080EE2FF0A03E11950120827
:100D000009E21A50180806E303E11950000802E34B
:100D1000829E01D0828E1C500F081EE2FF0A03E162
:100D20001B50150819E21C50100816E303E11B5074
:100D3000310812E31A5006080EE2FF0A03E11950C7
:100D4000330809E21A50170806E303E11950360880
:100D500002E3829E01D0828E38505F0830E2948890
:100D60000000948600008B98949800008B969496CF
:100D7000186AF2BE188EF29ED00E4A6E4FEC00F04A
:100D800018BEF28E186AF2BE188EF29E4A6A4FECB6
:100D900000F018BEF28E186AF2BE188EF29E010E96
:100DA0004A6E4FEC00F018BEF28E949800009486C4
:100DB00082A6FED7000000D000009488000082D4F4
:020DC00003002E
:020000040030CA
:0E00000000220F0E000181000FC00FE00F4024
:00000001FF
;PIC18F452
