:020000040000FA
:04000000E2EF00F03B
:08000800056ED8CF06F0E0CF31
:1000100007F00001E9CF0DF0EACF08F0E1CF09F0D9
:10002000E2CF0AF0D9CF0BF0DACF0CF0F3CF14F017
:10003000F4CF15F0FACF16F000C00FF001C010F0A9
:1000400002C011F003C012F004C013F09DAA2CEFFF
:1000500000F09EBA4FEF00F00FC000F010C001F0AA
:1000600011C002F012C003F013C004F00E8E0DC0D8
:10007000E9FF08C0EAFF09C0E1FF0AC0E2FF0BC0C8
:10008000D9FF0CC0DAFF14C0F3FF15C0F4FF16C08F
:10009000FAFF055007C0E0FF06C0D8FF10009EAA77
:1000A000FED7AECF27F09E9A2CEF00F02E50016ABB
:1000B0002D5C03E22DC000F00CD0006A080E2F6EFC
:1000C0002D3600362E50005CD8B0006E01362F2E33
:1000D000F7D7000C2C50630848E22CC02DF0640EBA
:1000E0002E6EE4DF01C02AF02CC02DF0640E2E6EBF
:1000F000DDDF00C029F029C02DF00A0E2E6ED6DFFC
:1001000001C029F02CC02DF00A0E2E6ECFDF00C0EA
:1001100028F0036A2A501D0FE96E000E0320EA6ED4
:10012000EFCF2DF02D509EA8FED7AD6E036A29505B
:100130001D0FE96E000E0320EA6EEFCF2DF02D505B
:100140009EA8FED7AD6E036A28501D0FE96E000E03
:100150000320EA6EEFCF2DF02D509EA8FED7AD6E96
:100160000D0E9EA8FED7AD6E2CD02CC02DF00A0E21
:100170002E6E9CDF01C029F02CC02DF00A0E2E6ED1
:1001800095DF00C028F0036A29501D0FE96E000EAC
:100190000320EA6EEFCF2DF02D509EA8FED7AD6E56
:1001A000036A28501D0FE96E000E0320EA6EEFCFA0
:1001B0002DF02D509EA8FED7AD6E0D0E9EA8FED739
:1001C000AD6E000CF86AD09E0D8EEA6AE96A150ED3
:1001D000AF6EA60EAC6E900EAB6EC180C182C184B4
:1001E000C196186A196A1A6A1B6A1C6A300E1D6E5B
:1001F000310E1E6E320E1F6E330E206E340E216EC7
:10020000350E226E360E236E370E246E380E256E96
:10021000390E266E2A6AC180C182C184C196C290FD
:100220009698C69A949A94889496010EC66E000E7B
:10023000C76ED190800ED56ECD6A000ECA6E000ECC
:10024000CB6E9D8AC00EF2123F0E926EFF0E936E21
:10025000800E946EFF0E956E9680968296848050E6
:10026000FF0A185C0AE0610E9EA8FED7AD6E80CF33
:100270002BF02B1E2BC02CF02DDF80CF18F0181E7A
:10028000186A8150FF0A195C0AE0620E9EA8FED728
:10029000AD6E81CF2BF02B1E2BC02CF01BDF81CF3E
:1002A00019F0191E83501A5C07E0640E9EA8FED751
:1002B000AD6E83CF2CF00EDF83CF1AF01A6A845014
:1002C000FF0A1B5C0AE0650E9EA8FED7AD6E84CFC8
:1002D0002BF02B1E2BC02CF0FDDE84CF1BF01B1E41
:0402E000BED7030082
:020000040030CA
:0E00000000220F0E000181000FC00FE00F4024
:00000001FF
;PIC18F452
