:020000040000FA
:040000001BEF01F001
:08000800056ED8CF06F0E0CF31
:1000100007F00001E9CF0DF0EACF08F0E1CF09F0D9
:10002000E2CF0AF0D9CF0BF0DACF0CF0F3CF14F017
:10003000F4CF15F0FACF16F000C00FF001C010F0A9
:1000400002C011F003C012F004C013F09DAA2CEFFF
:1000500000F09EBA75EF00F00FC000F010C001F084
:1000600011C002F012C003F013C004F00E8E0DC0D8
:10007000E9FF08C0EAFF09C0E1FF0AC0E2FF0BC0C8
:10008000D9FF0CC0DAFF14C0F3FF15C0F4FF16C08F
:10009000FAFF055007C0E0FF06C0D8FF10009684A5
:1000A00084B4FED7080E006E306A008E10D0009E19
:1000B0000ED030C002F0D89084B4D8800232008CC8
:1000C00006D0009C002EF7D702C001F00CD0160E0F
:1000D00000BE060E016E012EFED700D000BEE7D78F
:1000E00000BCEFD7E8D776EF00F0D9D701C027F0F2
:1000F0009E9A2CEF00F02E50016A2D5C03E22DC079
:1001000000F00CD0006A080E2F6E2D3600362E50EF
:10011000005CD8B0006E01362F2EF7D7000C9692F7
:100120008D92080E016E00D00000018E0ED0019E4F
:100130002E32D8B08D82D8A08D92018C06D0019C31
:10014000012EF6D700D000008D82160EE96EE92E42
:10015000FED700D0000001BEEAD701BCF0D7000CEA
:100160002C50630841E22CC02DF0640E2E6EC3DFCC
:1001700001C02AF02CC02DF0640E2E6EBCDF00C032
:1001800029F029C02DF00A0E2E6EB5DF01C029F02E
:100190002CC02DF00A0E2E6EAEDF00C028F0036AD0
:1001A0002A501D0FE96E000E0320EA6EEFCF2DF0EE
:1001B0002DC02EF0B4DF036A29501D0FE96E000E2A
:1001C0000320EA6EEFCF2DF02DC02EF0A8DF036ADA
:1001D00028501D0FE96E000E0320EA6EEFCF2DF0C0
:1001E0002DC02EF09CDF26D02CC02DF00A0E2E6ED6
:1001F00082DF01C029F02CC02DF00A0E2E6E7BDFAD
:1002000000C028F0036A29501D0FE96E000E03207C
:10021000EA6EEFCF2DF02DC02EF081DF036A28505B
:100220001D0FE96E000E0320EA6EEFCF2DF02DC0FA
:100230002EF075DF000CF86AD09E0D8EEA6AE96A2E
:1002400096928D82C180C182C184C196186A196A52
:100250001A6A1B6A1C6A300E1D6E310E1E6E320E3B
:100260001F6E330E206E340E216E350E226E360E4A
:10027000236E370E246E380E256E390E266E2A6ACE
:10028000C180C182C184C196C2909698C69A949A40
:1002900094889496010EC66E000EC76ED190800EA3
:1002A000D56ECD6A000ECA6E000ECB6E9D8AC00E52
:1002B000F2123F0E926EFF0E936E946E956E9690B4
:1002C0009692968481CF2BF02B1E2BC02CF048DF0A
:1002D000200E2E6E24DF82CF2BF02B1E2BC02CF095
:1002E0003FDF200E2E6E1BDF83CF2BF02B1E2BC08B
:0E02F0002CF036DF0D0E2E6E12DFE4D7030069
:020000040030CA
:0E00000000220F0E000181000FC00FE00F4024
:00000001FF
;PIC18F452
